{
  "_format": "hh-sol-artifact-1",
  "contractName": "Milikey",
  "sourceName": "contracts/Milikey.sol",
  "abi": [
    {
      "inputs": [],
      "stateMutability": "nonpayable",
      "type": "constructor"
    },
    {
      "anonymous": false,
      "inputs": [
        {
          "indexed": true,
          "internalType": "address",
          "name": "owner",
          "type": "address"
        },
        {
          "indexed": true,
          "internalType": "address",
          "name": "approved",
          "type": "address"
        },
        {
          "indexed": true,
          "internalType": "uint256",
          "name": "tokenId",
          "type": "uint256"
        }
      ],
      "name": "Approval",
      "type": "event"
    },
    {
      "anonymous": false,
      "inputs": [
        {
          "indexed": true,
          "internalType": "address",
          "name": "owner",
          "type": "address"
        },
        {
          "indexed": true,
          "internalType": "address",
          "name": "operator",
          "type": "address"
        },
        {
          "indexed": false,
          "internalType": "bool",
          "name": "approved",
          "type": "bool"
        }
      ],
      "name": "ApprovalForAll",
      "type": "event"
    },
    {
      "anonymous": false,
      "inputs": [
        {
          "indexed": true,
          "internalType": "uint256",
          "name": "tokenId",
          "type": "uint256"
        },
        {
          "indexed": false,
          "internalType": "address",
          "name": "current_owner",
          "type": "address"
        },
        {
          "indexed": false,
          "internalType": "address",
          "name": "new_owner",
          "type": "address"
        },
        {
          "indexed": false,
          "internalType": "bool",
          "name": "claimed",
          "type": "bool"
        }
      ],
      "name": "ItemCreated",
      "type": "event"
    },
    {
      "anonymous": false,
      "inputs": [
        {
          "indexed": true,
          "internalType": "address",
          "name": "from",
          "type": "address"
        },
        {
          "indexed": true,
          "internalType": "address",
          "name": "to",
          "type": "address"
        },
        {
          "indexed": true,
          "internalType": "uint256",
          "name": "tokenId",
          "type": "uint256"
        }
      ],
      "name": "Transfer",
      "type": "event"
    },
    {
      "inputs": [
        {
          "internalType": "address",
          "name": "to",
          "type": "address"
        },
        {
          "internalType": "uint256",
          "name": "tokenId",
          "type": "uint256"
        }
      ],
      "name": "approve",
      "outputs": [],
      "stateMutability": "nonpayable",
      "type": "function"
    },
    {
      "inputs": [
        {
          "internalType": "address",
          "name": "owner",
          "type": "address"
        }
      ],
      "name": "balanceOf",
      "outputs": [
        {
          "internalType": "uint256",
          "name": "",
          "type": "uint256"
        }
      ],
      "stateMutability": "view",
      "type": "function"
    },
    {
      "inputs": [
        {
          "internalType": "uint256",
          "name": "tokenId",
          "type": "uint256"
        }
      ],
      "name": "claimOwnership",
      "outputs": [],
      "stateMutability": "nonpayable",
      "type": "function"
    },
    {
      "inputs": [
        {
          "internalType": "string",
          "name": "tokenURI",
          "type": "string"
        }
      ],
      "name": "createToken",
      "outputs": [
        {
          "internalType": "uint256",
          "name": "",
          "type": "uint256"
        }
      ],
      "stateMutability": "payable",
      "type": "function"
    },
    {
      "inputs": [],
      "name": "fetchItems",
      "outputs": [
        {
          "components": [
            {
              "internalType": "uint256",
              "name": "tokenId",
              "type": "uint256"
            },
            {
              "internalType": "address",
              "name": "current_owner",
              "type": "address"
            },
            {
              "internalType": "address",
              "name": "new_owner",
              "type": "address"
            },
            {
              "internalType": "bool",
              "name": "claimed",
              "type": "bool"
            }
          ],
          "internalType": "struct Milikey.Item[]",
          "name": "",
          "type": "tuple[]"
        }
      ],
      "stateMutability": "view",
      "type": "function"
    },
    {
      "inputs": [
        {
          "internalType": "uint256",
          "name": "a",
          "type": "uint256"
        }
      ],
      "name": "fetchItems2",
      "outputs": [
        {
          "components": [
            {
              "internalType": "uint256",
              "name": "tokenId",
              "type": "uint256"
            },
            {
              "internalType": "address",
              "name": "current_owner",
              "type": "address"
            },
            {
              "internalType": "address",
              "name": "new_owner",
              "type": "address"
            },
            {
              "internalType": "bool",
              "name": "claimed",
              "type": "bool"
            }
          ],
          "internalType": "struct Milikey.Item[]",
          "name": "",
          "type": "tuple[]"
        }
      ],
      "stateMutability": "view",
      "type": "function"
    },
    {
      "inputs": [],
      "name": "fetchItemsListed",
      "outputs": [
        {
          "components": [
            {
              "internalType": "uint256",
              "name": "tokenId",
              "type": "uint256"
            },
            {
              "internalType": "address",
              "name": "current_owner",
              "type": "address"
            },
            {
              "internalType": "address",
              "name": "new_owner",
              "type": "address"
            },
            {
              "internalType": "bool",
              "name": "claimed",
              "type": "bool"
            }
          ],
          "internalType": "struct Milikey.Item[]",
          "name": "",
          "type": "tuple[]"
        }
      ],
      "stateMutability": "view",
      "type": "function"
    },
    {
      "inputs": [],
      "name": "fetchMyNFTs",
      "outputs": [
        {
          "components": [
            {
              "internalType": "uint256",
              "name": "tokenId",
              "type": "uint256"
            },
            {
              "internalType": "address",
              "name": "current_owner",
              "type": "address"
            },
            {
              "internalType": "address",
              "name": "new_owner",
              "type": "address"
            },
            {
              "internalType": "bool",
              "name": "claimed",
              "type": "bool"
            }
          ],
          "internalType": "struct Milikey.Item[]",
          "name": "",
          "type": "tuple[]"
        }
      ],
      "stateMutability": "view",
      "type": "function"
    },
    {
      "inputs": [
        {
          "internalType": "uint256",
          "name": "tokenId",
          "type": "uint256"
        }
      ],
      "name": "getApproved",
      "outputs": [
        {
          "internalType": "address",
          "name": "",
          "type": "address"
        }
      ],
      "stateMutability": "view",
      "type": "function"
    },
    {
      "inputs": [
        {
          "internalType": "address",
          "name": "owner",
          "type": "address"
        },
        {
          "internalType": "address",
          "name": "operator",
          "type": "address"
        }
      ],
      "name": "isApprovedForAll",
      "outputs": [
        {
          "internalType": "bool",
          "name": "",
          "type": "bool"
        }
      ],
      "stateMutability": "view",
      "type": "function"
    },
    {
      "inputs": [
        {
          "internalType": "uint256",
          "name": "tokenId",
          "type": "uint256"
        }
      ],
      "name": "letGoOwnership",
      "outputs": [],
      "stateMutability": "nonpayable",
      "type": "function"
    },
    {
      "inputs": [],
      "name": "name",
      "outputs": [
        {
          "internalType": "string",
          "name": "",
          "type": "string"
        }
      ],
      "stateMutability": "view",
      "type": "function"
    },
    {
      "inputs": [
        {
          "internalType": "uint256",
          "name": "tokenId",
          "type": "uint256"
        }
      ],
      "name": "ownerOf",
      "outputs": [
        {
          "internalType": "address",
          "name": "",
          "type": "address"
        }
      ],
      "stateMutability": "view",
      "type": "function"
    },
    {
      "inputs": [
        {
          "internalType": "address",
          "name": "from",
          "type": "address"
        },
        {
          "internalType": "address",
          "name": "to",
          "type": "address"
        },
        {
          "internalType": "uint256",
          "name": "tokenId",
          "type": "uint256"
        }
      ],
      "name": "safeTransferFrom",
      "outputs": [],
      "stateMutability": "nonpayable",
      "type": "function"
    },
    {
      "inputs": [
        {
          "internalType": "address",
          "name": "from",
          "type": "address"
        },
        {
          "internalType": "address",
          "name": "to",
          "type": "address"
        },
        {
          "internalType": "uint256",
          "name": "tokenId",
          "type": "uint256"
        },
        {
          "internalType": "bytes",
          "name": "_data",
          "type": "bytes"
        }
      ],
      "name": "safeTransferFrom",
      "outputs": [],
      "stateMutability": "nonpayable",
      "type": "function"
    },
    {
      "inputs": [
        {
          "internalType": "address",
          "name": "operator",
          "type": "address"
        },
        {
          "internalType": "bool",
          "name": "approved",
          "type": "bool"
        }
      ],
      "name": "setApprovalForAll",
      "outputs": [],
      "stateMutability": "nonpayable",
      "type": "function"
    },
    {
      "inputs": [
        {
          "internalType": "bytes4",
          "name": "interfaceId",
          "type": "bytes4"
        }
      ],
      "name": "supportsInterface",
      "outputs": [
        {
          "internalType": "bool",
          "name": "",
          "type": "bool"
        }
      ],
      "stateMutability": "view",
      "type": "function"
    },
    {
      "inputs": [],
      "name": "symbol",
      "outputs": [
        {
          "internalType": "string",
          "name": "",
          "type": "string"
        }
      ],
      "stateMutability": "view",
      "type": "function"
    },
    {
      "inputs": [
        {
          "internalType": "uint256",
          "name": "tokenId",
          "type": "uint256"
        }
      ],
      "name": "tokenURI",
      "outputs": [
        {
          "internalType": "string",
          "name": "",
          "type": "string"
        }
      ],
      "stateMutability": "view",
      "type": "function"
    },
    {
      "inputs": [
        {
          "internalType": "address",
          "name": "from",
          "type": "address"
        },
        {
          "internalType": "address",
          "name": "to",
          "type": "address"
        },
        {
          "internalType": "uint256",
          "name": "tokenId",
          "type": "uint256"
        }
      ],
      "name": "transferFrom",
      "outputs": [],
      "stateMutability": "nonpayable",
      "type": "function"
    }
  ],
  "bytecode": "0x60806040523480156200001157600080fd5b50604080518082018252600e81526d4d696c694b657920546f6b656e7360901b6020808301918252835180850190945260048452631352d65560e21b908401528151919291620000649160009162000095565b5080516200007a90600190602084019062000095565b5050600980546001600160a01b031916331790555062000178565b828054620000a3906200013b565b90600052602060002090601f016020900481019282620000c7576000855562000112565b82601f10620000e257805160ff191683800117855562000112565b8280016001018555821562000112579182015b8281111562000112578251825591602001919060010190620000f5565b506200012092915062000124565b5090565b5b8082111562000120576000815560010162000125565b600181811c908216806200015057607f821691505b602082108114156200017257634e487b7160e01b600052602260045260246000fd5b50919050565b61217780620001886000396000f3fe60806040526004361061011f5760003560e01c80636352211e116100a0578063ad78ba7b11610064578063ad78ba7b14610322578063b88d4fde14610337578063c87b56dd14610357578063ce7f271414610377578063e985e9c51461039757600080fd5b80636352211e1461028d57806370a08231146102ad57806395d89b41146102cd578063a22cb465146102e2578063a900d6491461030257600080fd5b806323b872dd116100e757806323b872dd146101f757806342842e0e1461021757806345576f941461023757806345f8fa80146102585780635c14dac21461026d57600080fd5b806301ffc9a71461012457806306fdde0314610159578063081812fc1461017b578063095ea7b3146101b3578063202e3740146101d5575b600080fd5b34801561013057600080fd5b5061014461013f366004611dba565b6103e0565b60405190151581526020015b60405180910390f35b34801561016557600080fd5b5061016e610432565b6040516101509190611f5a565b34801561018757600080fd5b5061019b610196366004611e38565b6104c4565b6040516001600160a01b039091168152602001610150565b3480156101bf57600080fd5b506101d36101ce366004611d91565b610551565b005b3480156101e157600080fd5b506101ea610667565b6040516101509190611ee8565b34801561020357600080fd5b506101d3610212366004611ca3565b610853565b34801561022357600080fd5b506101d3610232366004611ca3565b610884565b61024a610245366004611df2565b61089f565b604051908152602001610150565b34801561026457600080fd5b506101ea6108d9565b34801561027957600080fd5b506101d3610288366004611e38565b610abc565b34801561029957600080fd5b5061019b6102a8366004611e38565b610b89565b3480156102b957600080fd5b5061024a6102c8366004611c57565b610c00565b3480156102d957600080fd5b5061016e610c87565b3480156102ee57600080fd5b506101d36102fd366004611d57565b610c96565b34801561030e57600080fd5b506101ea61031d366004611e38565b610ca5565b34801561032e57600080fd5b506101ea610d8d565b34801561034357600080fd5b506101d3610352366004611cde565b610f29565b34801561036357600080fd5b5061016e610372366004611e38565b610f61565b34801561038357600080fd5b506101d3610392366004611e38565b6110d8565b3480156103a357600080fd5b506101446103b2366004611c71565b6001600160a01b03918216600090815260056020908152604080832093909416825291909152205460ff1690565b60006001600160e01b031982166380ac58cd60e01b148061041157506001600160e01b03198216635b5e139f60e01b145b8061042c57506301ffc9a760e01b6001600160e01b03198316145b92915050565b6060600080546104419061207f565b80601f016020809104026020016040519081016040528092919081815260200182805461046d9061207f565b80156104ba5780601f1061048f576101008083540402835291602001916104ba565b820191906000526020600020905b81548152906001019060200180831161049d57829003601f168201915b5050505050905090565b60006104cf82611133565b6105355760405162461bcd60e51b815260206004820152602c60248201527f4552433732313a20617070726f76656420717565727920666f72206e6f6e657860448201526b34b9ba32b73a103a37b5b2b760a11b60648201526084015b60405180910390fd5b506000908152600460205260409020546001600160a01b031690565b600061055c82610b89565b9050806001600160a01b0316836001600160a01b031614156105ca5760405162461bcd60e51b815260206004820152602160248201527f4552433732313a20617070726f76616c20746f2063757272656e74206f776e656044820152603960f91b606482015260840161052c565b336001600160a01b03821614806105e657506105e681336103b2565b6106585760405162461bcd60e51b815260206004820152603860248201527f4552433732313a20617070726f76652063616c6c6572206973206e6f74206f7760448201527f6e6572206e6f7220617070726f76656420666f7220616c6c0000000000000000606482015260840161052c565b6106628383611150565b505050565b6060600061067460075490565b905060008060005b838110156106d75733600a6000610694846001612010565b81526020810191909152604001600020600201546001600160a01b031614156106c5576106c2600184612010565b92505b806106cf816120ba565b91505061067c565b5060008267ffffffffffffffff81111561070157634e487b7160e01b600052604160045260246000fd5b60405190808252806020026020018201604052801561075357816020015b60408051608081018252600080825260208083018290529282018190526060820152825260001990920191018161071f5790505b50905060005b8481101561084a5733600a6000610771846001612010565b81526020810191909152604001600020600201546001600160a01b031614156108385760006107a1826001612010565b6000818152600a602090815260409182902082516080810184528154815260018201546001600160a01b0390811693820193909352600282015492831693810193909352600160a01b90910460ff161515606083015285519293509185908790811061081d57634e487b7160e01b600052603260045260246000fd5b6020908102919091010152610833600186612010565b945050505b80610842816120ba565b915050610759565b50949350505050565b61085d33826111be565b6108795760405162461bcd60e51b815260040161052c90611fbf565b6106628383836112a7565b61066283838360405180602001604052806000815250610f29565b60006108af600780546001019055565b60006108ba60075490565b90506108c63382611443565b6108d08184611576565b61042c81611601565b606060006108e660075490565b905060008060005b838110156109495733600a6000610906846001612010565b81526020810191909152604001600020600101546001600160a01b0316141561093757610934600184612010565b92505b80610941816120ba565b9150506108ee565b5060008267ffffffffffffffff81111561097357634e487b7160e01b600052604160045260246000fd5b6040519080825280602002602001820160405280156109c557816020015b6040805160808101825260008082526020808301829052928201819052606082015282526000199092019101816109915790505b50905060005b8481101561084a5733600a60006109e3846001612010565b81526020810191909152604001600020600101546001600160a01b03161415610aaa576000610a13826001612010565b6000818152600a602090815260409182902082516080810184528154815260018201546001600160a01b0390811693820193909352600282015492831693810193909352600160a01b90910460ff1615156060830152855192935091859087908110610a8f57634e487b7160e01b600052603260045260246000fd5b6020908102919091010152610aa5600186612010565b945050505b80610ab4816120ba565b9150506109cb565b6000818152600a60205260409020600201546001600160a01b03163314610b385760405162461bcd60e51b815260206004820152602a60248201527f4f6e6c79206974656d206f776e65722063616e20706572666f726d20746869736044820152691037b832b930ba34b7b760b11b606482015260840161052c565b6000818152600a60205260409020600281018054600190920180546001600160a01b031916331790556001600160a81b031990911630179055610b7b60086116d4565b610b863330836112a7565b50565b6000818152600260205260408120546001600160a01b03168061042c5760405162461bcd60e51b815260206004820152602960248201527f4552433732313a206f776e657220717565727920666f72206e6f6e657869737460448201526832b73a103a37b5b2b760b91b606482015260840161052c565b60006001600160a01b038216610c6b5760405162461bcd60e51b815260206004820152602a60248201527f4552433732313a2062616c616e636520717565727920666f7220746865207a65604482015269726f206164647265737360b01b606482015260840161052c565b506001600160a01b031660009081526003602052604090205490565b6060600180546104419061207f565b610ca133838361172b565b5050565b60408051600180825281830190925260609160009190816020015b604080516080810182526000808252602080830182905292820181905260608201528252600019909201910181610cc0579050506000848152600a6020908152604080832081516080810183528154815260018201546001600160a01b0390811694820194909452600282015493841692810192909252600160a01b90920460ff16151560608201528351939450909290918491610d6e57634e487b7160e01b600052603260045260246000fd5b6020908102919091018101919091526000859052600a90525092915050565b60606000610d9a60075490565b90506000610da760085490565b600754610db4919061203c565b90506000808267ffffffffffffffff811115610de057634e487b7160e01b600052604160045260246000fd5b604051908082528060200260200182016040528015610e3257816020015b604080516080810182526000808252602080830182905292820181905260608201528252600019909201910181610dfe5790505b50905060005b8481101561084a5730600a6000610e50846001612010565b81526020810191909152604001600020600201546001600160a01b03161415610f17576000610e80826001612010565b6000818152600a602090815260409182902082516080810184528154815260018201546001600160a01b0390811693820193909352600282015492831693810193909352600160a01b90910460ff1615156060830152855192935091859087908110610efc57634e487b7160e01b600052603260045260246000fd5b6020908102919091010152610f12600186612010565b945050505b80610f21816120ba565b915050610e38565b610f3333836111be565b610f4f5760405162461bcd60e51b815260040161052c90611fbf565b610f5b848484846117fa565b50505050565b6060610f6c82611133565b610fd25760405162461bcd60e51b815260206004820152603160248201527f45524337323155524953746f726167653a2055524920717565727920666f72206044820152703737b732bc34b9ba32b73a103a37b5b2b760791b606482015260840161052c565b60008281526006602052604081208054610feb9061207f565b80601f01602080910402602001604051908101604052809291908181526020018280546110179061207f565b80156110645780601f1061103957610100808354040283529160200191611064565b820191906000526020600020905b81548152906001019060200180831161104757829003601f168201915b50505050509050600061108260408051602081019091526000815290565b9050805160001415611095575092915050565b8151156110c75780826040516020016110af929190611e7c565b60405160208183030381529060405292505050919050565b6110d08461182d565b949350505050565b6000818152600a6020526040902060028101805460ff60a01b1933166001600160a81b031990911617600160a01b17905560010180546001600160a01b0319169055611128600880546001019055565b610b863033836112a7565b6000908152600260205260409020546001600160a01b0316151590565b600081815260046020526040902080546001600160a01b0319166001600160a01b038416908117909155819061118582610b89565b6001600160a01b03167f8c5be1e5ebec7d5bd14f71427d1e84f3dd0314c0f7b2291e5b200ac8c7c3b92560405160405180910390a45050565b60006111c982611133565b61122a5760405162461bcd60e51b815260206004820152602c60248201527f4552433732313a206f70657261746f7220717565727920666f72206e6f6e657860448201526b34b9ba32b73a103a37b5b2b760a11b606482015260840161052c565b600061123583610b89565b9050806001600160a01b0316846001600160a01b0316148061127c57506001600160a01b0380821660009081526005602090815260408083209388168352929052205460ff165b806110d05750836001600160a01b0316611295846104c4565b6001600160a01b031614949350505050565b826001600160a01b03166112ba82610b89565b6001600160a01b03161461131e5760405162461bcd60e51b815260206004820152602560248201527f4552433732313a207472616e736665722066726f6d20696e636f72726563742060448201526437bbb732b960d91b606482015260840161052c565b6001600160a01b0382166113805760405162461bcd60e51b8152602060048201526024808201527f4552433732313a207472616e7366657220746f20746865207a65726f206164646044820152637265737360e01b606482015260840161052c565b61138b600082611150565b6001600160a01b03831660009081526003602052604081208054600192906113b490849061203c565b90915550506001600160a01b03821660009081526003602052604081208054600192906113e2908490612010565b909155505060008181526002602052604080822080546001600160a01b0319166001600160a01b0386811691821790925591518493918716917fddf252ad1be2c89b69c2b068fc378daa952ba7f163c4a11628f55a4df523b3ef91a4505050565b6001600160a01b0382166114995760405162461bcd60e51b815260206004820181905260248201527f4552433732313a206d696e7420746f20746865207a65726f2061646472657373604482015260640161052c565b6114a281611133565b156114ef5760405162461bcd60e51b815260206004820152601c60248201527f4552433732313a20746f6b656e20616c7265616479206d696e74656400000000604482015260640161052c565b6001600160a01b0382166000908152600360205260408120805460019290611518908490612010565b909155505060008181526002602052604080822080546001600160a01b0319166001600160a01b03861690811790915590518392907fddf252ad1be2c89b69c2b068fc378daa952ba7f163c4a11628f55a4df523b3ef908290a45050565b61157f82611133565b6115e25760405162461bcd60e51b815260206004820152602e60248201527f45524337323155524953746f726167653a2055524920736574206f66206e6f6e60448201526d32bc34b9ba32b73a103a37b5b2b760911b606482015260840161052c565b6000828152600660209081526040909120825161066292840190611b2c565b6040805160808101825282815233602080830182815230848601818152600060608701818152898252600a909552969096209451855590516001850180546001600160a01b039283166001600160a01b031990911617905594516002909401805492511515600160a01b026001600160a81b031990931694909516939093171790925561168f9190836112a7565b60408051338152306020820152600081830152905182917fdc6344a4f32249c6db89a6b60170919cc695d46b0fb1460eaf5b8acd0e542903919081900360600190a250565b8054806117235760405162461bcd60e51b815260206004820152601b60248201527f436f756e7465723a2064656372656d656e74206f766572666c6f770000000000604482015260640161052c565b600019019055565b816001600160a01b0316836001600160a01b0316141561178d5760405162461bcd60e51b815260206004820152601960248201527f4552433732313a20617070726f766520746f2063616c6c657200000000000000604482015260640161052c565b6001600160a01b03838116600081815260056020908152604080832094871680845294825291829020805460ff191686151590811790915591519182527f17307eab39ab6107e8899845ad3d59bd9653f200f220920489ca2b5937696c31910160405180910390a3505050565b6118058484846112a7565b61181184848484611905565b610f5b5760405162461bcd60e51b815260040161052c90611f6d565b606061183882611133565b61189c5760405162461bcd60e51b815260206004820152602f60248201527f4552433732314d657461646174613a2055524920717565727920666f72206e6f60448201526e3732bc34b9ba32b73a103a37b5b2b760891b606482015260840161052c565b60006118b360408051602081019091526000815290565b905060008151116118d357604051806020016040528060008152506118fe565b806118dd84611a12565b6040516020016118ee929190611e7c565b6040516020818303038152906040525b9392505050565b60006001600160a01b0384163b15611a0757604051630a85bd0160e11b81526001600160a01b0385169063150b7a0290611949903390899088908890600401611eab565b602060405180830381600087803b15801561196357600080fd5b505af1925050508015611993575060408051601f3d908101601f1916820190925261199091810190611dd6565b60015b6119ed573d8080156119c1576040519150601f19603f3d011682016040523d82523d6000602084013e6119c6565b606091505b5080516119e55760405162461bcd60e51b815260040161052c90611f6d565b805181602001fd5b6001600160e01b031916630a85bd0160e11b1490506110d0565b506001949350505050565b606081611a365750506040805180820190915260018152600360fc1b602082015290565b8160005b8115611a605780611a4a816120ba565b9150611a599050600a83612028565b9150611a3a565b60008167ffffffffffffffff811115611a8957634e487b7160e01b600052604160045260246000fd5b6040519080825280601f01601f191660200182016040528015611ab3576020820181803683370190505b5090505b84156110d057611ac860018361203c565b9150611ad5600a866120d5565b611ae0906030612010565b60f81b818381518110611b0357634e487b7160e01b600052603260045260246000fd5b60200101906001600160f81b031916908160001a905350611b25600a86612028565b9450611ab7565b828054611b389061207f565b90600052602060002090601f016020900481019282611b5a5760008555611ba0565b82601f10611b7357805160ff1916838001178555611ba0565b82800160010185558215611ba0579182015b82811115611ba0578251825591602001919060010190611b85565b50611bac929150611bb0565b5090565b5b80821115611bac5760008155600101611bb1565b600067ffffffffffffffff80841115611be057611be0612115565b604051601f8501601f19908116603f01168101908282118183101715611c0857611c08612115565b81604052809350858152868686011115611c2157600080fd5b858560208301376000602087830101525050509392505050565b80356001600160a01b0381168114611c5257600080fd5b919050565b600060208284031215611c68578081fd5b6118fe82611c3b565b60008060408385031215611c83578081fd5b611c8c83611c3b565b9150611c9a60208401611c3b565b90509250929050565b600080600060608486031215611cb7578081fd5b611cc084611c3b565b9250611cce60208501611c3b565b9150604084013590509250925092565b60008060008060808587031215611cf3578081fd5b611cfc85611c3b565b9350611d0a60208601611c3b565b925060408501359150606085013567ffffffffffffffff811115611d2c578182fd5b8501601f81018713611d3c578182fd5b611d4b87823560208401611bc5565b91505092959194509250565b60008060408385031215611d69578182fd5b611d7283611c3b565b915060208301358015158114611d86578182fd5b809150509250929050565b60008060408385031215611da3578182fd5b611dac83611c3b565b946020939093013593505050565b600060208284031215611dcb578081fd5b81356118fe8161212b565b600060208284031215611de7578081fd5b81516118fe8161212b565b600060208284031215611e03578081fd5b813567ffffffffffffffff811115611e19578182fd5b8201601f81018413611e29578182fd5b6110d084823560208401611bc5565b600060208284031215611e49578081fd5b5035919050565b60008151808452611e68816020860160208601612053565b601f01601f19169290920160200192915050565b60008351611e8e818460208801612053565b835190830190611ea2818360208801612053565b01949350505050565b6001600160a01b0385811682528416602082015260408101839052608060608201819052600090611ede90830184611e50565b9695505050505050565b602080825282518282018190526000919060409081850190868401855b82811015611f4d57815180518552868101516001600160a01b039081168887015286820151168686015260609081015115159085015260809093019290850190600101611f05565b5091979650505050505050565b6020815260006118fe6020830184611e50565b60208082526032908201527f4552433732313a207472616e7366657220746f206e6f6e20455243373231526560408201527131b2b4bb32b91034b6b83632b6b2b73a32b960711b606082015260800190565b60208082526031908201527f4552433732313a207472616e736665722063616c6c6572206973206e6f74206f6040820152701ddb995c881b9bdc88185c1c1c9bdd9959607a1b606082015260800190565b60008219821115612023576120236120e9565b500190565b600082612037576120376120ff565b500490565b60008282101561204e5761204e6120e9565b500390565b60005b8381101561206e578181015183820152602001612056565b83811115610f5b5750506000910152565b600181811c9082168061209357607f821691505b602082108114156120b457634e487b7160e01b600052602260045260246000fd5b50919050565b60006000198214156120ce576120ce6120e9565b5060010190565b6000826120e4576120e46120ff565b500690565b634e487b7160e01b600052601160045260246000fd5b634e487b7160e01b600052601260045260246000fd5b634e487b7160e01b600052604160045260246000fd5b6001600160e01b031981168114610b8657600080fdfea2646970667358221220a6175eeff66bb0e6789d98cb2be62918b80d6b35501f92231eb938958df6384c64736f6c63430008040033",
  "linkReferences": {},
  "deployedLinkReferences": {}
}