{
  "_format": "hh-sol-artifact-1",
  "contractName": "Milikey",
  "sourceName": "contracts/Milikey.sol",
  "abi": [
    {
      "inputs": [],
      "stateMutability": "nonpayable",
      "type": "constructor"
    },
    {
      "anonymous": false,
      "inputs": [
        {
          "indexed": true,
          "internalType": "address",
          "name": "owner",
          "type": "address"
        },
        {
          "indexed": true,
          "internalType": "address",
          "name": "approved",
          "type": "address"
        },
        {
          "indexed": true,
          "internalType": "uint256",
          "name": "tokenId",
          "type": "uint256"
        }
      ],
      "name": "Approval",
      "type": "event"
    },
    {
      "anonymous": false,
      "inputs": [
        {
          "indexed": true,
          "internalType": "address",
          "name": "owner",
          "type": "address"
        },
        {
          "indexed": true,
          "internalType": "address",
          "name": "operator",
          "type": "address"
        },
        {
          "indexed": false,
          "internalType": "bool",
          "name": "approved",
          "type": "bool"
        }
      ],
      "name": "ApprovalForAll",
      "type": "event"
    },
    {
      "anonymous": false,
      "inputs": [
        {
          "indexed": true,
          "internalType": "uint256",
          "name": "tokenId",
          "type": "uint256"
        },
        {
          "indexed": false,
          "internalType": "address",
          "name": "seller",
          "type": "address"
        },
        {
          "indexed": false,
          "internalType": "address",
          "name": "owner",
          "type": "address"
        },
        {
          "indexed": false,
          "internalType": "uint256",
          "name": "price",
          "type": "uint256"
        },
        {
          "indexed": false,
          "internalType": "bool",
          "name": "sold",
          "type": "bool"
        }
      ],
      "name": "ItemCreated",
      "type": "event"
    },
    {
      "anonymous": false,
      "inputs": [
        {
          "indexed": true,
          "internalType": "address",
          "name": "from",
          "type": "address"
        },
        {
          "indexed": true,
          "internalType": "address",
          "name": "to",
          "type": "address"
        },
        {
          "indexed": true,
          "internalType": "uint256",
          "name": "tokenId",
          "type": "uint256"
        }
      ],
      "name": "Transfer",
      "type": "event"
    },
    {
      "inputs": [
        {
          "internalType": "address",
          "name": "to",
          "type": "address"
        },
        {
          "internalType": "uint256",
          "name": "tokenId",
          "type": "uint256"
        }
      ],
      "name": "approve",
      "outputs": [],
      "stateMutability": "nonpayable",
      "type": "function"
    },
    {
      "inputs": [
        {
          "internalType": "address",
          "name": "owner",
          "type": "address"
        }
      ],
      "name": "balanceOf",
      "outputs": [
        {
          "internalType": "uint256",
          "name": "",
          "type": "uint256"
        }
      ],
      "stateMutability": "view",
      "type": "function"
    },
    {
      "inputs": [
        {
          "internalType": "uint256",
          "name": "tokenId",
          "type": "uint256"
        }
      ],
      "name": "createMarketSale",
      "outputs": [],
      "stateMutability": "payable",
      "type": "function"
    },
    {
      "inputs": [
        {
          "internalType": "string",
          "name": "tokenURI",
          "type": "string"
        },
        {
          "internalType": "uint256",
          "name": "price",
          "type": "uint256"
        }
      ],
      "name": "createToken",
      "outputs": [
        {
          "internalType": "uint256",
          "name": "",
          "type": "uint256"
        }
      ],
      "stateMutability": "payable",
      "type": "function"
    },
    {
      "inputs": [],
      "name": "fetchItems",
      "outputs": [
        {
          "components": [
            {
              "internalType": "uint256",
              "name": "tokenId",
              "type": "uint256"
            },
            {
              "internalType": "address payable",
              "name": "seller",
              "type": "address"
            },
            {
              "internalType": "address payable",
              "name": "owner",
              "type": "address"
            },
            {
              "internalType": "uint256",
              "name": "price",
              "type": "uint256"
            },
            {
              "internalType": "bool",
              "name": "sold",
              "type": "bool"
            }
          ],
          "internalType": "struct Milikey.Item[]",
          "name": "",
          "type": "tuple[]"
        }
      ],
      "stateMutability": "view",
      "type": "function"
    },
    {
      "inputs": [
        {
          "internalType": "uint256",
          "name": "a",
          "type": "uint256"
        }
      ],
      "name": "fetchItems2",
      "outputs": [
        {
          "components": [
            {
              "internalType": "uint256",
              "name": "tokenId",
              "type": "uint256"
            },
            {
              "internalType": "address payable",
              "name": "seller",
              "type": "address"
            },
            {
              "internalType": "address payable",
              "name": "owner",
              "type": "address"
            },
            {
              "internalType": "uint256",
              "name": "price",
              "type": "uint256"
            },
            {
              "internalType": "bool",
              "name": "sold",
              "type": "bool"
            }
          ],
          "internalType": "struct Milikey.Item[]",
          "name": "",
          "type": "tuple[]"
        }
      ],
      "stateMutability": "view",
      "type": "function"
    },
    {
      "inputs": [],
      "name": "fetchItemsListed",
      "outputs": [
        {
          "components": [
            {
              "internalType": "uint256",
              "name": "tokenId",
              "type": "uint256"
            },
            {
              "internalType": "address payable",
              "name": "seller",
              "type": "address"
            },
            {
              "internalType": "address payable",
              "name": "owner",
              "type": "address"
            },
            {
              "internalType": "uint256",
              "name": "price",
              "type": "uint256"
            },
            {
              "internalType": "bool",
              "name": "sold",
              "type": "bool"
            }
          ],
          "internalType": "struct Milikey.Item[]",
          "name": "",
          "type": "tuple[]"
        }
      ],
      "stateMutability": "view",
      "type": "function"
    },
    {
      "inputs": [],
      "name": "fetchMyNFTs",
      "outputs": [
        {
          "components": [
            {
              "internalType": "uint256",
              "name": "tokenId",
              "type": "uint256"
            },
            {
              "internalType": "address payable",
              "name": "seller",
              "type": "address"
            },
            {
              "internalType": "address payable",
              "name": "owner",
              "type": "address"
            },
            {
              "internalType": "uint256",
              "name": "price",
              "type": "uint256"
            },
            {
              "internalType": "bool",
              "name": "sold",
              "type": "bool"
            }
          ],
          "internalType": "struct Milikey.Item[]",
          "name": "",
          "type": "tuple[]"
        }
      ],
      "stateMutability": "view",
      "type": "function"
    },
    {
      "inputs": [
        {
          "internalType": "uint256",
          "name": "tokenId",
          "type": "uint256"
        }
      ],
      "name": "getApproved",
      "outputs": [
        {
          "internalType": "address",
          "name": "",
          "type": "address"
        }
      ],
      "stateMutability": "view",
      "type": "function"
    },
    {
      "inputs": [],
      "name": "getListingPrice",
      "outputs": [
        {
          "internalType": "uint256",
          "name": "",
          "type": "uint256"
        }
      ],
      "stateMutability": "view",
      "type": "function"
    },
    {
      "inputs": [
        {
          "internalType": "address",
          "name": "owner",
          "type": "address"
        },
        {
          "internalType": "address",
          "name": "operator",
          "type": "address"
        }
      ],
      "name": "isApprovedForAll",
      "outputs": [
        {
          "internalType": "bool",
          "name": "",
          "type": "bool"
        }
      ],
      "stateMutability": "view",
      "type": "function"
    },
    {
      "inputs": [],
      "name": "name",
      "outputs": [
        {
          "internalType": "string",
          "name": "",
          "type": "string"
        }
      ],
      "stateMutability": "view",
      "type": "function"
    },
    {
      "inputs": [
        {
          "internalType": "uint256",
          "name": "tokenId",
          "type": "uint256"
        }
      ],
      "name": "ownerOf",
      "outputs": [
        {
          "internalType": "address",
          "name": "",
          "type": "address"
        }
      ],
      "stateMutability": "view",
      "type": "function"
    },
    {
      "inputs": [
        {
          "internalType": "uint256",
          "name": "tokenId",
          "type": "uint256"
        },
        {
          "internalType": "uint256",
          "name": "price",
          "type": "uint256"
        }
      ],
      "name": "resellToken",
      "outputs": [],
      "stateMutability": "payable",
      "type": "function"
    },
    {
      "inputs": [
        {
          "internalType": "address",
          "name": "from",
          "type": "address"
        },
        {
          "internalType": "address",
          "name": "to",
          "type": "address"
        },
        {
          "internalType": "uint256",
          "name": "tokenId",
          "type": "uint256"
        }
      ],
      "name": "safeTransferFrom",
      "outputs": [],
      "stateMutability": "nonpayable",
      "type": "function"
    },
    {
      "inputs": [
        {
          "internalType": "address",
          "name": "from",
          "type": "address"
        },
        {
          "internalType": "address",
          "name": "to",
          "type": "address"
        },
        {
          "internalType": "uint256",
          "name": "tokenId",
          "type": "uint256"
        },
        {
          "internalType": "bytes",
          "name": "_data",
          "type": "bytes"
        }
      ],
      "name": "safeTransferFrom",
      "outputs": [],
      "stateMutability": "nonpayable",
      "type": "function"
    },
    {
      "inputs": [
        {
          "internalType": "address",
          "name": "operator",
          "type": "address"
        },
        {
          "internalType": "bool",
          "name": "approved",
          "type": "bool"
        }
      ],
      "name": "setApprovalForAll",
      "outputs": [],
      "stateMutability": "nonpayable",
      "type": "function"
    },
    {
      "inputs": [
        {
          "internalType": "bytes4",
          "name": "interfaceId",
          "type": "bytes4"
        }
      ],
      "name": "supportsInterface",
      "outputs": [
        {
          "internalType": "bool",
          "name": "",
          "type": "bool"
        }
      ],
      "stateMutability": "view",
      "type": "function"
    },
    {
      "inputs": [],
      "name": "symbol",
      "outputs": [
        {
          "internalType": "string",
          "name": "",
          "type": "string"
        }
      ],
      "stateMutability": "view",
      "type": "function"
    },
    {
      "inputs": [
        {
          "internalType": "uint256",
          "name": "tokenId",
          "type": "uint256"
        }
      ],
      "name": "tokenURI",
      "outputs": [
        {
          "internalType": "string",
          "name": "",
          "type": "string"
        }
      ],
      "stateMutability": "view",
      "type": "function"
    },
    {
      "inputs": [
        {
          "internalType": "address",
          "name": "from",
          "type": "address"
        },
        {
          "internalType": "address",
          "name": "to",
          "type": "address"
        },
        {
          "internalType": "uint256",
          "name": "tokenId",
          "type": "uint256"
        }
      ],
      "name": "transferFrom",
      "outputs": [],
      "stateMutability": "nonpayable",
      "type": "function"
    },
    {
      "inputs": [
        {
          "internalType": "uint256",
          "name": "_listingPrice",
          "type": "uint256"
        }
      ],
      "name": "updateListingPrice",
      "outputs": [],
      "stateMutability": "payable",
      "type": "function"
    }
  ],
  "bytecode": "0x608060405260006009553480156200001657600080fd5b50604080518082018252601081526f4d657461766572736520546f6b656e7360801b6020808301918252835180850190945260048452631351551560e21b9084015281519192916200006b916000916200009c565b508051620000819060019060208401906200009c565b5050600a80546001600160a01b03191633179055506200017f565b828054620000aa9062000142565b90600052602060002090601f016020900481019282620000ce576000855562000119565b82601f10620000e957805160ff191683800117855562000119565b8280016001018555821562000119579182015b8281111562000119578251825591602001919060010190620000fc565b50620001279291506200012b565b5090565b5b808211156200012757600081556001016200012c565b600181811c908216806200015757607f821691505b602082108114156200017957634e487b7160e01b600052602260045260246000fd5b50919050565b612437806200018f6000396000f3fe6080604052600436106101355760003560e01c806372b3b620116100ab578063ae677aa31161006f578063ae677aa31461033e578063b88d4fde14610351578063be9af53614610371578063c87b56dd14610384578063e219fc75146103a4578063e985e9c5146103b757600080fd5b806372b3b620146102c157806395d89b41146102d4578063a22cb465146102e9578063a900d64914610309578063ad78ba7b1461032957600080fd5b8063202e3740116100fd578063202e37401461020a57806323b872dd1461022c57806342842e0e1461024c57806345f8fa801461026c5780636352211e1461028157806370a08231146102a157600080fd5b806301ffc9a71461013a57806306fdde031461016f578063081812fc14610191578063095ea7b3146101c957806312e85585146101eb575b600080fd5b34801561014657600080fd5b5061015a610155366004611ff8565b610400565b60405190151581526020015b60405180910390f35b34801561017b57600080fd5b50610184610452565b60405161016691906121d3565b34801561019d57600080fd5b506101b16101ac366004612086565b6104e4565b6040516001600160a01b039091168152602001610166565b3480156101d557600080fd5b506101e96101e4366004611fcf565b610571565b005b3480156101f757600080fd5b506009545b604051908152602001610166565b34801561021657600080fd5b5061021f610687565b6040516101669190612157565b34801561023857600080fd5b506101e9610247366004611ee1565b610862565b34801561025857600080fd5b506101e9610267366004611ee1565b610893565b34801561027857600080fd5b5061021f6108ae565b34801561028d57600080fd5b506101b161029c366004612086565b610a80565b3480156102ad57600080fd5b506101fc6102bc366004611e95565b610af7565b6101fc6102cf366004612030565b610b7e565b3480156102e057600080fd5b50610184610bc0565b3480156102f557600080fd5b506101e9610304366004611f95565b610bcf565b34801561031557600080fd5b5061021f610324366004612086565b610bde565b34801561033557600080fd5b5061021f610cb2565b6101e961034c366004612086565b610e3d565b34801561035d57600080fd5b506101e961036c366004611f1c565b610eb5565b6101e961037f366004612086565b610eed565b34801561039057600080fd5b5061018461039f366004612086565b611052565b6101e96103b236600461209e565b6111c9565b3480156103c357600080fd5b5061015a6103d2366004611eaf565b6001600160a01b03918216600090815260056020908152604080832093909416825291909152205460ff1690565b60006001600160e01b031982166380ac58cd60e01b148061043157506001600160e01b03198216635b5e139f60e01b145b8061044c57506301ffc9a760e01b6001600160e01b03198316145b92915050565b6060600080546104619061233c565b80601f016020809104026020016040519081016040528092919081815260200182805461048d9061233c565b80156104da5780601f106104af576101008083540402835291602001916104da565b820191906000526020600020905b8154815290600101906020018083116104bd57829003601f168201915b5050505050905090565b60006104ef826112c1565b6105555760405162461bcd60e51b815260206004820152602c60248201527f4552433732313a20617070726f76656420717565727920666f72206e6f6e657860448201526b34b9ba32b73a103a37b5b2b760a11b60648201526084015b60405180910390fd5b506000908152600460205260409020546001600160a01b031690565b600061057c82610a80565b9050806001600160a01b0316836001600160a01b031614156105ea5760405162461bcd60e51b815260206004820152602160248201527f4552433732313a20617070726f76616c20746f2063757272656e74206f776e656044820152603960f91b606482015260840161054c565b336001600160a01b0382161480610606575061060681336103d2565b6106785760405162461bcd60e51b815260206004820152603860248201527f4552433732313a20617070726f76652063616c6c6572206973206e6f74206f7760448201527f6e6572206e6f7220617070726f76656420666f7220616c6c0000000000000000606482015260840161054c565b61068283836112de565b505050565b6060600061069460075490565b905060008060005b838110156106f75733600b60006106b48460016122cd565b81526020810191909152604001600020600201546001600160a01b031614156106e5576106e26001846122cd565b92505b806106ef81612377565b91505061069c565b5060008267ffffffffffffffff81111561072157634e487b7160e01b600052604160045260246000fd5b60405190808252806020026020018201604052801561075a57816020015b610747611d3c565b81526020019060019003908161073f5790505b50905060005b848110156108595733600b60006107788460016122cd565b81526020810191909152604001600020600201546001600160a01b031614156108475760006107a88260016122cd565b6000818152600b6020908152604091829020825160a0810184528154815260018201546001600160a01b039081169382019390935260028201549092169282019290925260038201546060820152600482015460ff16151560808201528551929350909185908790811061082c57634e487b7160e01b600052603260045260246000fd5b60209081029190910101526108426001866122cd565b945050505b8061085181612377565b915050610760565b50949350505050565b61086c338261134c565b6108885760405162461bcd60e51b815260040161054c9061227c565b610682838383611435565b61068283838360405180602001604052806000815250610eb5565b606060006108bb60075490565b905060008060005b8381101561091e5733600b60006108db8460016122cd565b81526020810191909152604001600020600101546001600160a01b0316141561090c576109096001846122cd565b92505b8061091681612377565b9150506108c3565b5060008267ffffffffffffffff81111561094857634e487b7160e01b600052604160045260246000fd5b60405190808252806020026020018201604052801561098157816020015b61096e611d3c565b8152602001906001900390816109665790505b50905060005b848110156108595733600b600061099f8460016122cd565b81526020810191909152604001600020600101546001600160a01b03161415610a6e5760006109cf8260016122cd565b6000818152600b6020908152604091829020825160a0810184528154815260018201546001600160a01b039081169382019390935260028201549092169282019290925260038201546060820152600482015460ff161515608082015285519293509091859087908110610a5357634e487b7160e01b600052603260045260246000fd5b6020908102919091010152610a696001866122cd565b945050505b80610a7881612377565b915050610987565b6000818152600260205260408120546001600160a01b03168061044c5760405162461bcd60e51b815260206004820152602960248201527f4552433732313a206f776e657220717565727920666f72206e6f6e657869737460448201526832b73a103a37b5b2b760b91b606482015260840161054c565b60006001600160a01b038216610b625760405162461bcd60e51b815260206004820152602a60248201527f4552433732313a2062616c616e636520717565727920666f7220746865207a65604482015269726f206164647265737360b01b606482015260840161054c565b506001600160a01b031660009081526003602052604090205490565b6000610b8e600780546001019055565b6000610b9960075490565b9050610ba533826115d1565b610baf8185611704565b610bb9818461178f565b9392505050565b6060600180546104619061233c565b610bda3383836118e5565b5050565b60408051600180825281830190925260609160009190816020015b610c01611d3c565b815260200190600190039081610bf95750506000848152600b60209081526040808320815160a0810183528154815260018201546001600160a01b039081169482019490945260028201549093169183019190915260038101546060830152600481015460ff161515608083015283519394509290918491610c9357634e487b7160e01b600052603260045260246000fd5b6020908102919091018101919091526000859052600b90525092915050565b60606000610cbf60075490565b90506000610ccc60085490565b600754610cd991906122f9565b90506000808267ffffffffffffffff811115610d0557634e487b7160e01b600052604160045260246000fd5b604051908082528060200260200182016040528015610d3e57816020015b610d2b611d3c565b815260200190600190039081610d235790505b50905060005b848110156108595730600b6000610d5c8460016122cd565b81526020810191909152604001600020600201546001600160a01b03161415610e2b576000610d8c8260016122cd565b6000818152600b6020908152604091829020825160a0810184528154815260018201546001600160a01b039081169382019390935260028201549092169282019290925260038201546060820152600482015460ff161515608082015285519293509091859087908110610e1057634e487b7160e01b600052603260045260246000fd5b6020908102919091010152610e266001866122cd565b945050505b80610e3581612377565b915050610d44565b600a546001600160a01b03163314610eb05760405162461bcd60e51b815260206004820152603060248201527f4f6e6c79206d61726b6574706c616365206f776e65722063616e20757064617460448201526f32903634b9ba34b73390383934b1b29760811b606482015260840161054c565b600955565b610ebf338361134c565b610edb5760405162461bcd60e51b815260040161054c9061227c565b610ee7848484846119b4565b50505050565b6000818152600b6020526040902060038101546001909101546001600160a01b0316348214610f86576040805162461bcd60e51b81526020600482015260248101919091527f506c65617365207375626d6974207468652061736b696e67207072696365206960448201527f6e206f7264657220746f20636f6d706c65746520746865207075726368617365606482015260840161054c565b6000838152600b602052604090206002810180546001600160a01b0319908116331790915560048201805460ff1916600190811790915590910180549091169055610fd5600880546001019055565b610fe0303385611435565b600a546009546040516001600160a01b039092169181156108fc0291906000818181858888f1935050505015801561101c573d6000803e3d6000fd5b506040516001600160a01b038216903480156108fc02916000818181858888f19350505050158015610ee7573d6000803e3d6000fd5b606061105d826112c1565b6110c35760405162461bcd60e51b815260206004820152603160248201527f45524337323155524953746f726167653a2055524920717565727920666f72206044820152703737b732bc34b9ba32b73a103a37b5b2b760791b606482015260840161054c565b600082815260066020526040812080546110dc9061233c565b80601f01602080910402602001604051908101604052809291908181526020018280546111089061233c565b80156111555780601f1061112a57610100808354040283529160200191611155565b820191906000526020600020905b81548152906001019060200180831161113857829003601f168201915b50505050509050600061117360408051602081019091526000815290565b9050805160001415611186575092915050565b8151156111b85780826040516020016111a09291906120eb565b60405160208183030381529060405292505050919050565b6111c1846119e7565b949350505050565b6000828152600b60205260409020600201546001600160a01b031633146112455760405162461bcd60e51b815260206004820152602a60248201527f4f6e6c79206974656d206f776e65722063616e20706572666f726d20746869736044820152691037b832b930ba34b7b760b11b606482015260840161054c565b60095434146112665760405162461bcd60e51b815260040161054c90612238565b6000828152600b6020526040902060048101805460ff19169055600381018290556001810180546001600160a01b0319908116331790915560029091018054909116301790556112b66008611abe565b610bda333084611435565b6000908152600260205260409020546001600160a01b0316151590565b600081815260046020526040902080546001600160a01b0319166001600160a01b038416908117909155819061131382610a80565b6001600160a01b03167f8c5be1e5ebec7d5bd14f71427d1e84f3dd0314c0f7b2291e5b200ac8c7c3b92560405160405180910390a45050565b6000611357826112c1565b6113b85760405162461bcd60e51b815260206004820152602c60248201527f4552433732313a206f70657261746f7220717565727920666f72206e6f6e657860448201526b34b9ba32b73a103a37b5b2b760a11b606482015260840161054c565b60006113c383610a80565b9050806001600160a01b0316846001600160a01b0316148061140a57506001600160a01b0380821660009081526005602090815260408083209388168352929052205460ff165b806111c15750836001600160a01b0316611423846104e4565b6001600160a01b031614949350505050565b826001600160a01b031661144882610a80565b6001600160a01b0316146114ac5760405162461bcd60e51b815260206004820152602560248201527f4552433732313a207472616e736665722066726f6d20696e636f72726563742060448201526437bbb732b960d91b606482015260840161054c565b6001600160a01b03821661150e5760405162461bcd60e51b8152602060048201526024808201527f4552433732313a207472616e7366657220746f20746865207a65726f206164646044820152637265737360e01b606482015260840161054c565b6115196000826112de565b6001600160a01b03831660009081526003602052604081208054600192906115429084906122f9565b90915550506001600160a01b03821660009081526003602052604081208054600192906115709084906122cd565b909155505060008181526002602052604080822080546001600160a01b0319166001600160a01b0386811691821790925591518493918716917fddf252ad1be2c89b69c2b068fc378daa952ba7f163c4a11628f55a4df523b3ef91a4505050565b6001600160a01b0382166116275760405162461bcd60e51b815260206004820181905260248201527f4552433732313a206d696e7420746f20746865207a65726f2061646472657373604482015260640161054c565b611630816112c1565b1561167d5760405162461bcd60e51b815260206004820152601c60248201527f4552433732313a20746f6b656e20616c7265616479206d696e74656400000000604482015260640161054c565b6001600160a01b03821660009081526003602052604081208054600192906116a69084906122cd565b909155505060008181526002602052604080822080546001600160a01b0319166001600160a01b03861690811790915590518392907fddf252ad1be2c89b69c2b068fc378daa952ba7f163c4a11628f55a4df523b3ef908290a45050565b61170d826112c1565b6117705760405162461bcd60e51b815260206004820152602e60248201527f45524337323155524953746f726167653a2055524920736574206f66206e6f6e60448201526d32bc34b9ba32b73a103a37b5b2b760911b606482015260840161054c565b6000828152600660209081526040909120825161068292840190611d6a565b600081116117df5760405162461bcd60e51b815260206004820152601c60248201527f5072696365206d757374206265206174206c6561737420312077656900000000604482015260640161054c565b60095434146118005760405162461bcd60e51b815260040161054c90612238565b6040805160a08101825283815233602080830182815230848601818152606086018881526000608088018181528b8252600b909652979097209551865591516001860180546001600160a01b03199081166001600160a01b0393841617909155925160028701805490941691161790915593516003840155516004909201805460ff1916921515929092179091556118989184611435565b604080513381523060208201529081018290526000606082015282907fac9c6ba6615a42ba499e4fb8f4e81fca0a12708052230586867f82d2dbc6a3b19060800160405180910390a25050565b816001600160a01b0316836001600160a01b031614156119475760405162461bcd60e51b815260206004820152601960248201527f4552433732313a20617070726f766520746f2063616c6c657200000000000000604482015260640161054c565b6001600160a01b03838116600081815260056020908152604080832094871680845294825291829020805460ff191686151590811790915591519182527f17307eab39ab6107e8899845ad3d59bd9653f200f220920489ca2b5937696c31910160405180910390a3505050565b6119bf848484611435565b6119cb84848484611b15565b610ee75760405162461bcd60e51b815260040161054c906121e6565b60606119f2826112c1565b611a565760405162461bcd60e51b815260206004820152602f60248201527f4552433732314d657461646174613a2055524920717565727920666f72206e6f60448201526e3732bc34b9ba32b73a103a37b5b2b760891b606482015260840161054c565b6000611a6d60408051602081019091526000815290565b90506000815111611a8d5760405180602001604052806000815250610bb9565b80611a9784611c22565b604051602001611aa89291906120eb565b6040516020818303038152906040529392505050565b805480611b0d5760405162461bcd60e51b815260206004820152601b60248201527f436f756e7465723a2064656372656d656e74206f766572666c6f770000000000604482015260640161054c565b600019019055565b60006001600160a01b0384163b15611c1757604051630a85bd0160e11b81526001600160a01b0385169063150b7a0290611b5990339089908890889060040161211a565b602060405180830381600087803b158015611b7357600080fd5b505af1925050508015611ba3575060408051601f3d908101601f19168201909252611ba091810190612014565b60015b611bfd573d808015611bd1576040519150601f19603f3d011682016040523d82523d6000602084013e611bd6565b606091505b508051611bf55760405162461bcd60e51b815260040161054c906121e6565b805181602001fd5b6001600160e01b031916630a85bd0160e11b1490506111c1565b506001949350505050565b606081611c465750506040805180820190915260018152600360fc1b602082015290565b8160005b8115611c705780611c5a81612377565b9150611c699050600a836122e5565b9150611c4a565b60008167ffffffffffffffff811115611c9957634e487b7160e01b600052604160045260246000fd5b6040519080825280601f01601f191660200182016040528015611cc3576020820181803683370190505b5090505b84156111c157611cd86001836122f9565b9150611ce5600a86612392565b611cf09060306122cd565b60f81b818381518110611d1357634e487b7160e01b600052603260045260246000fd5b60200101906001600160f81b031916908160001a905350611d35600a866122e5565b9450611cc7565b6040805160a08101825260008082526020820181905291810182905260608101829052608081019190915290565b828054611d769061233c565b90600052602060002090601f016020900481019282611d985760008555611dde565b82601f10611db157805160ff1916838001178555611dde565b82800160010185558215611dde579182015b82811115611dde578251825591602001919060010190611dc3565b50611dea929150611dee565b5090565b5b80821115611dea5760008155600101611def565b600067ffffffffffffffff80841115611e1e57611e1e6123d2565b604051601f8501601f19908116603f01168101908282118183101715611e4657611e466123d2565b81604052809350858152868686011115611e5f57600080fd5b858560208301376000602087830101525050509392505050565b80356001600160a01b0381168114611e9057600080fd5b919050565b600060208284031215611ea6578081fd5b610bb982611e79565b60008060408385031215611ec1578081fd5b611eca83611e79565b9150611ed860208401611e79565b90509250929050565b600080600060608486031215611ef5578081fd5b611efe84611e79565b9250611f0c60208501611e79565b9150604084013590509250925092565b60008060008060808587031215611f31578081fd5b611f3a85611e79565b9350611f4860208601611e79565b925060408501359150606085013567ffffffffffffffff811115611f6a578182fd5b8501601f81018713611f7a578182fd5b611f8987823560208401611e03565b91505092959194509250565b60008060408385031215611fa7578182fd5b611fb083611e79565b915060208301358015158114611fc4578182fd5b809150509250929050565b60008060408385031215611fe1578182fd5b611fea83611e79565b946020939093013593505050565b600060208284031215612009578081fd5b8135610bb9816123e8565b600060208284031215612025578081fd5b8151610bb9816123e8565b60008060408385031215612042578182fd5b823567ffffffffffffffff811115612058578283fd5b8301601f81018513612068578283fd5b61207785823560208401611e03565b95602094909401359450505050565b600060208284031215612097578081fd5b5035919050565b600080604083850312156120b0578182fd5b50508035926020909101359150565b600081518084526120d7816020860160208601612310565b601f01601f19169290920160200192915050565b600083516120fd818460208801612310565b835190830190612111818360208801612310565b01949350505050565b6001600160a01b038581168252841660208201526040810183905260806060820181905260009061214d908301846120bf565b9695505050505050565b602080825282518282018190526000919060409081850190868401855b828110156121c657815180518552868101516001600160a01b03908116888701528682015116868601526060808201519086015260809081015115159085015260a09093019290850190600101612174565b5091979650505050505050565b602081526000610bb960208301846120bf565b60208082526032908201527f4552433732313a207472616e7366657220746f206e6f6e20455243373231526560408201527131b2b4bb32b91034b6b83632b6b2b73a32b960711b606082015260800190565b60208082526024908201527f5072696365206d75737420626520657175616c20746f206c697374696e6720706040820152637269636560e01b606082015260800190565b60208082526031908201527f4552433732313a207472616e736665722063616c6c6572206973206e6f74206f6040820152701ddb995c881b9bdc88185c1c1c9bdd9959607a1b606082015260800190565b600082198211156122e0576122e06123a6565b500190565b6000826122f4576122f46123bc565b500490565b60008282101561230b5761230b6123a6565b500390565b60005b8381101561232b578181015183820152602001612313565b83811115610ee75750506000910152565b600181811c9082168061235057607f821691505b6020821081141561237157634e487b7160e01b600052602260045260246000fd5b50919050565b600060001982141561238b5761238b6123a6565b5060010190565b6000826123a1576123a16123bc565b500690565b634e487b7160e01b600052601160045260246000fd5b634e487b7160e01b600052601260045260246000fd5b634e487b7160e01b600052604160045260246000fd5b6001600160e01b0319811681146123fe57600080fd5b5056fea2646970667358221220217a24fbde68c087e3876e411f3cd6db148bdf51545dd1c5c819a24674ec9ebc64736f6c63430008040033",
  "linkReferences": {},
  "deployedLinkReferences": {}
}